{
  "contractName": "Lottery",
  "abi": [
    {
      "inputs": [],
      "stateMutability": "nonpayable",
      "type": "constructor"
    },
    {
      "anonymous": false,
      "inputs": [
        {
          "indexed": false,
          "internalType": "uint256",
          "name": "index",
          "type": "uint256"
        },
        {
          "indexed": false,
          "internalType": "address",
          "name": "bettor",
          "type": "address"
        },
        {
          "indexed": false,
          "internalType": "uint256",
          "name": "amount",
          "type": "uint256"
        },
        {
          "indexed": false,
          "internalType": "bytes1",
          "name": "challenges",
          "type": "bytes1"
        },
        {
          "indexed": false,
          "internalType": "uint256",
          "name": "answerBlockNumber",
          "type": "uint256"
        }
      ],
      "name": "BET",
      "type": "event"
    },
    {
      "anonymous": false,
      "inputs": [
        {
          "indexed": false,
          "internalType": "uint256",
          "name": "index",
          "type": "uint256"
        },
        {
          "indexed": false,
          "internalType": "address",
          "name": "bettor",
          "type": "address"
        },
        {
          "indexed": false,
          "internalType": "uint256",
          "name": "amount",
          "type": "uint256"
        },
        {
          "indexed": false,
          "internalType": "bytes1",
          "name": "challenges",
          "type": "bytes1"
        },
        {
          "indexed": false,
          "internalType": "bytes1",
          "name": "answer",
          "type": "bytes1"
        },
        {
          "indexed": false,
          "internalType": "uint256",
          "name": "annswerBlockNumber",
          "type": "uint256"
        }
      ],
      "name": "DRAW",
      "type": "event"
    },
    {
      "anonymous": false,
      "inputs": [
        {
          "indexed": false,
          "internalType": "uint256",
          "name": "index",
          "type": "uint256"
        },
        {
          "indexed": false,
          "internalType": "address",
          "name": "bettor",
          "type": "address"
        },
        {
          "indexed": false,
          "internalType": "uint256",
          "name": "amount",
          "type": "uint256"
        },
        {
          "indexed": false,
          "internalType": "bytes1",
          "name": "challenges",
          "type": "bytes1"
        },
        {
          "indexed": false,
          "internalType": "bytes1",
          "name": "answer",
          "type": "bytes1"
        },
        {
          "indexed": false,
          "internalType": "uint256",
          "name": "annswerBlockNumber",
          "type": "uint256"
        }
      ],
      "name": "FAIL",
      "type": "event"
    },
    {
      "anonymous": false,
      "inputs": [
        {
          "indexed": false,
          "internalType": "uint256",
          "name": "index",
          "type": "uint256"
        },
        {
          "indexed": false,
          "internalType": "address",
          "name": "bettor",
          "type": "address"
        },
        {
          "indexed": false,
          "internalType": "uint256",
          "name": "amount",
          "type": "uint256"
        },
        {
          "indexed": false,
          "internalType": "bytes1",
          "name": "challenges",
          "type": "bytes1"
        },
        {
          "indexed": false,
          "internalType": "uint256",
          "name": "annswerBlockNumber",
          "type": "uint256"
        }
      ],
      "name": "REFUND",
      "type": "event"
    },
    {
      "anonymous": false,
      "inputs": [
        {
          "indexed": false,
          "internalType": "uint256",
          "name": "index",
          "type": "uint256"
        },
        {
          "indexed": false,
          "internalType": "address",
          "name": "bettor",
          "type": "address"
        },
        {
          "indexed": false,
          "internalType": "uint256",
          "name": "amount",
          "type": "uint256"
        },
        {
          "indexed": false,
          "internalType": "bytes1",
          "name": "challenges",
          "type": "bytes1"
        },
        {
          "indexed": false,
          "internalType": "bytes1",
          "name": "answer",
          "type": "bytes1"
        },
        {
          "indexed": false,
          "internalType": "uint256",
          "name": "annswerBlockNumber",
          "type": "uint256"
        }
      ],
      "name": "WIN",
      "type": "event"
    },
    {
      "inputs": [],
      "name": "answerForTest",
      "outputs": [
        {
          "internalType": "bytes32",
          "name": "",
          "type": "bytes32"
        }
      ],
      "stateMutability": "view",
      "type": "function"
    },
    {
      "inputs": [],
      "name": "owner",
      "outputs": [
        {
          "internalType": "address payable",
          "name": "",
          "type": "address"
        }
      ],
      "stateMutability": "view",
      "type": "function"
    },
    {
      "inputs": [],
      "name": "getPot",
      "outputs": [
        {
          "internalType": "uint256",
          "name": "pot",
          "type": "uint256"
        }
      ],
      "stateMutability": "view",
      "type": "function"
    },
    {
      "inputs": [
        {
          "internalType": "bytes1",
          "name": "challenges",
          "type": "bytes1"
        }
      ],
      "name": "betAndDistribute",
      "outputs": [
        {
          "internalType": "bool",
          "name": "result",
          "type": "bool"
        }
      ],
      "stateMutability": "payable",
      "type": "function"
    },
    {
      "inputs": [
        {
          "internalType": "bytes1",
          "name": "challenges",
          "type": "bytes1"
        }
      ],
      "name": "bet",
      "outputs": [
        {
          "internalType": "bool",
          "name": "result",
          "type": "bool"
        }
      ],
      "stateMutability": "payable",
      "type": "function"
    },
    {
      "inputs": [],
      "name": "distribute",
      "outputs": [],
      "stateMutability": "nonpayable",
      "type": "function"
    },
    {
      "inputs": [
        {
          "internalType": "address payable",
          "name": "addr",
          "type": "address"
        },
        {
          "internalType": "uint256",
          "name": "amount",
          "type": "uint256"
        }
      ],
      "name": "transferAfterPayingFee",
      "outputs": [
        {
          "internalType": "uint256",
          "name": "",
          "type": "uint256"
        }
      ],
      "stateMutability": "nonpayable",
      "type": "function"
    },
    {
      "inputs": [
        {
          "internalType": "bytes32",
          "name": "answer",
          "type": "bytes32"
        }
      ],
      "name": "setAnswerForTest",
      "outputs": [
        {
          "internalType": "bool",
          "name": "result",
          "type": "bool"
        }
      ],
      "stateMutability": "nonpayable",
      "type": "function"
    },
    {
      "inputs": [
        {
          "internalType": "bytes1",
          "name": "challenges",
          "type": "bytes1"
        },
        {
          "internalType": "bytes32",
          "name": "answer",
          "type": "bytes32"
        }
      ],
      "name": "isMatch",
      "outputs": [
        {
          "internalType": "enum Lottery.BettingResult",
          "name": "",
          "type": "uint8"
        }
      ],
      "stateMutability": "pure",
      "type": "function"
    },
    {
      "inputs": [
        {
          "internalType": "uint256",
          "name": "index",
          "type": "uint256"
        }
      ],
      "name": "getBetInfo",
      "outputs": [
        {
          "internalType": "uint256",
          "name": "answerBlockNumber",
          "type": "uint256"
        },
        {
          "internalType": "address",
          "name": "bettor",
          "type": "address"
        },
        {
          "internalType": "bytes1",
          "name": "challenges",
          "type": "bytes1"
        }
      ],
      "stateMutability": "view",
      "type": "function"
    }
  ],
  "bytecode": "0x60806040526000600360146101000a81548160ff02191690831515021790555034801561002b57600080fd5b5033600360006101000a81548173ffffffffffffffffffffffffffffffffffffffff021916908373ffffffffffffffffffffffffffffffffffffffff1602179055506118b08061007c6000396000f3fe6080604052600436106100915760003560e01c806395327d111161005957806395327d111461019357806399a167d7146101d0578063e16ea8571461020d578063e4fc6b6d1461023d578063f4b46f5b1461025457610091565b8063403c9fa8146100965780637009fa36146100c157806379141f80146100fe57806384f7e4f01461013d5780638da5cb5b14610168575b600080fd5b3480156100a257600080fd5b506100ab610284565b6040516100b8919061102d565b60405180910390f35b3480156100cd57600080fd5b506100e860048036038101906100e39190611083565b61028e565b6040516100f591906110cb565b60405180910390f35b34801561010a57600080fd5b5061012560048036038101906101209190611112565b610330565b604051610134939291906111bb565b60405180910390f35b34801561014957600080fd5b5061015261042e565b60405161015f9190611201565b60405180910390f35b34801561017457600080fd5b5061017d610434565b60405161018a919061123d565b60405180910390f35b34801561019f57600080fd5b506101ba60048036038101906101b59190611284565b61045a565b6040516101c7919061102d565b60405180910390f35b3480156101dc57600080fd5b506101f760048036038101906101f291906112f0565b61052c565b60405161020491906113a7565b60405180910390f35b610227600480360381019061022291906113c2565b610815565b60405161023491906110cb565b60405180910390f35b34801561024957600080fd5b50610252610832565b005b61026e600480360381019061026991906113c2565b610c85565b60405161027b91906110cb565b60405180910390f35b6000600554905090565b6000600360009054906101000a900473ffffffffffffffffffffffffffffffffffffffff1673ffffffffffffffffffffffffffffffffffffffff163373ffffffffffffffffffffffffffffffffffffffff1614610320576040517f08c379a000000000000000000000000000000000000000000000000000000000815260040161031790611472565b60405180910390fd5b8160048190555060019050919050565b60008060008060026000868152602001908152602001600020604051806060016040529081600082015481526020016001820160009054906101000a900473ffffffffffffffffffffffffffffffffffffffff1673ffffffffffffffffffffffffffffffffffffffff1673ffffffffffffffffffffffffffffffffffffffff1681526020016001820160149054906101000a900460f81b7effffffffffffffffffffffffffffffffffffffffffffffffffffffffffffff19167effffffffffffffffffffffffffffffffffffffffffffffffffffffffffffff1916815250509050806000015193508060200151925080604001519150509193909250565b60045481565b600360009054906101000a900473ffffffffffffffffffffffffffffffffffffffff1681565b600080600090506000818461046f91906114c1565b90508473ffffffffffffffffffffffffffffffffffffffff166108fc829081150290604051600060405180830381858888f193505050501580156104b7573d6000803e3d6000fd5b50600360009054906101000a900473ffffffffffffffffffffffffffffffffffffffff1673ffffffffffffffffffffffffffffffffffffffff166108fc839081150290604051600060405180830381858888f19350505050158015610520573d6000803e3d6000fd5b50809250505092915050565b600080839050600084905060008460006020811061054d5761054c6114f5565b5b1a60f81b9050600085600060208110610569576105686114f5565b5b1a60f81b90506004847effffffffffffffffffffffffffffffffffffffffffffffffffffffffffffff1916901c93506004847effffffffffffffffffffffffffffffffffffffffffffffffffffffffffffff1916901b93506004827effffffffffffffffffffffffffffffffffffffffffffffffffffffffffffff1916901c91506004827effffffffffffffffffffffffffffffffffffffffffffffffffffffffffffff1916901b91506004837effffffffffffffffffffffffffffffffffffffffffffffffffffffffffffff1916901b92506004837effffffffffffffffffffffffffffffffffffffffffffffffffffffffffffff1916901c92506004817effffffffffffffffffffffffffffffffffffffffffffffffffffffffffffff1916901b90506004817effffffffffffffffffffffffffffffffffffffffffffffffffffffffffffff1916901c9050837effffffffffffffffffffffffffffffffffffffffffffffffffffffffffffff1916827effffffffffffffffffffffffffffffffffffffffffffffffffffffffffffff191614801561074d5750827effffffffffffffffffffffffffffffffffffffffffffffffffffffffffffff1916817effffffffffffffffffffffffffffffffffffffffffffffffffffffffffffff1916145b1561075f57600194505050505061080f565b837effffffffffffffffffffffffffffffffffffffffffffffffffffffffffffff1916827effffffffffffffffffffffffffffffffffffffffffffffffffffffffffffff191614806107f45750827effffffffffffffffffffffffffffffffffffffffffffffffffffffffffffff1916817effffffffffffffffffffffffffffffffffffffffffffffffffffffffffffff1916145b1561080657600294505050505061080f565b60009450505050505b92915050565b600061082082610c85565b50610829610832565b60019050919050565b60008061083d610fbb565b60008060015494505b600054851015610c775760026000868152602001908152602001600020604051806060016040529081600082015481526020016001820160009054906101000a900473ffffffffffffffffffffffffffffffffffffffff1673ffffffffffffffffffffffffffffffffffffffff1673ffffffffffffffffffffffffffffffffffffffff1681526020016001820160149054906101000a900460f81b7effffffffffffffffffffffffffffffffffffffffffffffffffffffffffffff19167effffffffffffffffffffffffffffffffffffffffffffffffffffffffffffff19168152505092506109388360000151610d7a565b91506000600281111561094e5761094d611330565b5b82600281111561096157610960611330565b5b03610b9f5760006109758460000151610ddc565b905061098584604001518261052c565b91506001600281111561099b5761099a611330565b5b8260028111156109ae576109ad611330565b5b03610a44576109d584602001516611c37937e080006005546109d09190611524565b61045a565b945060006005819055507f8219079e2d6c1192fb0ff7f78e6faaf5528ad6687e69749205d87bd4b156912b86856020015187876040015185600060208110610a2057610a1f6114f5565b5b1a60f81b8960000151604051610a3b969594939291906115b7565b60405180910390a15b60006002811115610a5857610a57611330565b5b826002811115610a6b57610a6a611330565b5b03610af6576611c37937e0800060056000828254610a899190611524565b925050819055507f3b19d607433249d2ebc766ae82ca3848e9c064f1febb5147bc6e5b21d0adebc58685602001516000876040015185600060208110610ad257610ad16114f5565b5b1a60f81b8960000151604051610aed96959493929190611653565b60405180910390a15b600280811115610b0957610b08611330565b5b826002811115610b1c57610b1b611330565b5b03610b9d57610b3684602001516611c37937e0800061045a565b94507f72ec2e949e4fad9380f9d5db3e2ed0e71cf22c51d8d66424508bdc761a3f4b0e86856020015187876040015185600060208110610b7957610b786114f5565b5b1a60f81b8960000151604051610b94969594939291906115b7565b60405180910390a15b505b60016002811115610bb357610bb2611330565b5b826002811115610bc657610bc5611330565b5b0315610c7757600280811115610bdf57610bde611330565b5b826002811115610bf257610bf1611330565b5b03610c5a57610c0c83602001516611c37937e0800061045a565b93507f59c0185881271a0f53d43e6ab9310091408f9e0ff9ae2512613de800f26b8de48584602001518686604001518760000151604051610c519594939291906116b4565b60405180910390a15b610c6385610e04565b508480610c6f90611707565b955050610846565b846001819055505050505050565b60006611c37937e080003414610cd0576040517f08c379a0000000000000000000000000000000000000000000000000000000008152600401610cc79061179b565b60405180910390fd5b610cd982610e68565b610d18576040517f08c379a0000000000000000000000000000000000000000000000000000000008152600401610d0f90611807565b60405180910390fd5b7f100791de9f40bf2d56ffa6dc5597d2fd0b2703ea70bc7548cd74c04f5d215ab76001600054610d4891906114c1565b333485600343610d589190611524565b604051610d69959493929190611827565b60405180910390a160019050919050565b60008143118015610d97575081610100610d949190611524565b43105b15610da55760009050610dd7565b814311610db55760019050610dd7565b61010082610dc39190611524565b4310610dd25760029050610dd7565b600290505b919050565b6000600360149054906101000a900460ff16610dfa57600454610dfd565b81405b9050919050565b6000600260008381526020019081526020016000206000808201600090556001820160006101000a81549073ffffffffffffffffffffffffffffffffffffffff02191690556001820160146101000a81549060ff0219169055505060019050919050565b6000610e72610fbb565b33816020019073ffffffffffffffffffffffffffffffffffffffff16908173ffffffffffffffffffffffffffffffffffffffff1681525050600343610eb79190611524565b8160000181815250508281604001907effffffffffffffffffffffffffffffffffffffffffffffffffffffffffffff191690817effffffffffffffffffffffffffffffffffffffffffffffffffffffffffffff1916815250508060026000805481526020019081526020016000206000820151816000015560208201518160010160006101000a81548173ffffffffffffffffffffffffffffffffffffffff021916908373ffffffffffffffffffffffffffffffffffffffff16021790555060408201518160010160146101000a81548160ff021916908360f81c0217905550905050600080815480929190610fac90611707565b91905055506001915050919050565b604051806060016040528060008152602001600073ffffffffffffffffffffffffffffffffffffffff16815260200160007effffffffffffffffffffffffffffffffffffffffffffffffffffffffffffff191681525090565b6000819050919050565b61102781611014565b82525050565b6000602082019050611042600083018461101e565b92915050565b600080fd5b6000819050919050565b6110608161104d565b811461106b57600080fd5b50565b60008135905061107d81611057565b92915050565b60006020828403121561109957611098611048565b5b60006110a78482850161106e565b91505092915050565b60008115159050919050565b6110c5816110b0565b82525050565b60006020820190506110e060008301846110bc565b92915050565b6110ef81611014565b81146110fa57600080fd5b50565b60008135905061110c816110e6565b92915050565b60006020828403121561112857611127611048565b5b6000611136848285016110fd565b91505092915050565b600073ffffffffffffffffffffffffffffffffffffffff82169050919050565b600061116a8261113f565b9050919050565b61117a8161115f565b82525050565b60007fff0000000000000000000000000000000000000000000000000000000000000082169050919050565b6111b581611180565b82525050565b60006060820190506111d0600083018661101e565b6111dd6020830185611171565b6111ea60408301846111ac565b949350505050565b6111fb8161104d565b82525050565b600060208201905061121660008301846111f2565b92915050565b60006112278261113f565b9050919050565b6112378161121c565b82525050565b6000602082019050611252600083018461122e565b92915050565b6112618161121c565b811461126c57600080fd5b50565b60008135905061127e81611258565b92915050565b6000806040838503121561129b5761129a611048565b5b60006112a98582860161126f565b92505060206112ba858286016110fd565b9150509250929050565b6112cd81611180565b81146112d857600080fd5b50565b6000813590506112ea816112c4565b92915050565b6000806040838503121561130757611306611048565b5b6000611315858286016112db565b92505060206113268582860161106e565b9150509250929050565b7f4e487b7100000000000000000000000000000000000000000000000000000000600052602160045260246000fd5b600381106113705761136f611330565b5b50565b60008190506113818261135f565b919050565b600061139182611373565b9050919050565b6113a181611386565b82525050565b60006020820190506113bc6000830184611398565b92915050565b6000602082840312156113d8576113d7611048565b5b60006113e6848285016112db565b91505092915050565b600082825260208201905092915050565b7f4f6e6c79206f776e65722063616e207365742074686520616e7377657220666f60008201527f722074657374206d6f6465000000000000000000000000000000000000000000602082015250565b600061145c602b836113ef565b915061146782611400565b604082019050919050565b6000602082019050818103600083015261148b8161144f565b9050919050565b7f4e487b7100000000000000000000000000000000000000000000000000000000600052601160045260246000fd5b60006114cc82611014565b91506114d783611014565b92508282039050818111156114ef576114ee611492565b5b92915050565b7f4e487b7100000000000000000000000000000000000000000000000000000000600052603260045260246000fd5b600061152f82611014565b915061153a83611014565b925082820190508082111561155257611551611492565b5b92915050565b6000819050919050565b600061157d6115786115738461113f565b611558565b61113f565b9050919050565b600061158f82611562565b9050919050565b60006115a182611584565b9050919050565b6115b181611596565b82525050565b600060c0820190506115cc600083018961101e565b6115d960208301886115a8565b6115e6604083018761101e565b6115f360608301866111ac565b61160060808301856111ac565b61160d60a083018461101e565b979650505050505050565b6000819050919050565b600061163d61163861163384611618565b611558565b611014565b9050919050565b61164d81611622565b82525050565b600060c082019050611668600083018961101e565b61167560208301886115a8565b6116826040830187611644565b61168f60608301866111ac565b61169c60808301856111ac565b6116a960a083018461101e565b979650505050505050565b600060a0820190506116c9600083018861101e565b6116d660208301876115a8565b6116e3604083018661101e565b6116f060608301856111ac565b6116fd608083018461101e565b9695505050505050565b600061171282611014565b91507fffffffffffffffffffffffffffffffffffffffffffffffffffffffffffffffff820361174457611743611492565b5b600182019050919050565b7f4e6f7420656e6f75676820455448000000000000000000000000000000000000600082015250565b6000611785600e836113ef565b91506117908261174f565b602082019050919050565b600060208201905081810360008301526117b481611778565b9050919050565b7f4661696c20746f206164642061206e65772042657420496e666f000000000000600082015250565b60006117f1601a836113ef565b91506117fc826117bb565b602082019050919050565b60006020820190508181036000830152611820816117e4565b9050919050565b600060a08201905061183c600083018861101e565b6118496020830187611171565b611856604083018661101e565b61186360608301856111ac565b611870608083018461101e565b969550505050505056fea264697066735822122052e5e14e58f6fdce6342252f74b6a0dd1dbdb98e83da8e7de0be048f6a1cccba64736f6c63430008110033",
  "immutableReferences": {},
  "source": "// SPDX-License-Identifier: MIT\r\npragma solidity 0.8.17;\r\n\r\n\r\ncontract Lottery {\r\n    struct BetInfo {\r\n        uint256 answerBlockNumber; \r\n        address payable bettor;\r\n        bytes1 challenges;  // 0xab, byte  \r\n    }\r\n\r\n    uint256 private _tail;\r\n    uint256 private _head;\r\n    mapping (uint256 => BetInfo) private _bets;\r\n\r\n    address payable public owner;\r\n    bool private mode = false;  // false : test mode (use answer for test), true : real mode (use real block hash)\r\n    bytes32 public answerForTest;\r\n\r\n    uint256 constant internal BLOCK_LIMIT = 256;\r\n    uint256 constant internal BET_BLOCK_INTERVAL = 3;\r\n    uint256 constant internal BET_AMOUNT = 5 * 10 ** 15;  //   \r\n\r\n    uint256 private _pot;  //   \r\n\r\n    enum BlockStatus {Checkable, NotRevealed, BlockLimitPassed}\r\n    enum BettingResult {Fail, Win, Draw}\r\n\r\n    event BET(uint256 index, address bettor, uint256 amount, bytes1 challenges, uint256 answerBlockNumber);\r\n    event WIN(uint256 index, address bettor, uint256 amount, bytes1 challenges, bytes1 answer, uint256 annswerBlockNumber);\r\n    event FAIL(uint256 index, address bettor, uint256 amount, bytes1 challenges, bytes1 answer, uint256 annswerBlockNumber);\r\n    event DRAW(uint256 index, address bettor, uint256 amount, bytes1 challenges, bytes1 answer, uint256 annswerBlockNumber);\r\n    event REFUND(uint256 index, address bettor, uint256 amount, bytes1 challenges, uint256 annswerBlockNumber);\r\n    \r\n    constructor() {\r\n        owner = payable(msg.sender);  // 23.02.12 \r\n    }\r\n\r\n    // _pot  \r\n    function getPot() public view returns (uint256 pot) {\r\n        return _pot;\r\n    }\r\n\r\n    /**\r\n     * @dev    .  0.005 ETH  ,  1byte  .\r\n     *      distribute  .\r\n     * @param challenges   \r\n     * @return result    \r\n     */\r\n    function betAndDistribute(bytes1 challenges) public payable returns (bool result) {\r\n        bet(challenges);\r\n\r\n        distribute();\r\n\r\n        return true;\r\n    }\r\n\r\n    /**\r\n     * @dev  .  0.005 ETH  ,  1byte  .\r\n     *      distribute  .\r\n     * @param challenges   \r\n     * @return result    \r\n     */\r\n    function bet(bytes1 challenges) public payable returns (bool result) {\r\n        //    \r\n        require(msg.value == BET_AMOUNT, \"Not enough ETH\");\r\n\r\n        //  bet  \r\n        require(pushBet(challenges), \"Fail to add a new Bet Info\");\r\n\r\n        // emit event\r\n        emit BET(_tail - 1, msg.sender, msg.value, challenges, block.number + BET_BLOCK_INTERVAL);\r\n\r\n        return true;\r\n    }\r\n\r\n    /**\r\n     * @dev     \r\n     *   :  \r\n     *   :  \r\n     *   or    :   \r\n     */\r\n    function distribute() public {\r\n        uint256 cur;\r\n        uint256 transferAmount;\r\n\r\n        BetInfo memory b;\r\n        BlockStatus currentBlockStatus;\r\n        BettingResult currentBettingResult;\r\n\r\n        for(cur=_head; cur<_tail; cur++) {\r\n            b = _bets[cur];\r\n            currentBlockStatus = getBlockStatus(b.answerBlockNumber);\r\n\r\n            // Checkable \r\n            if(currentBlockStatus == BlockStatus.Checkable) {\r\n                bytes32 answerBlockHash = getAnswerBlockHash(b.answerBlockNumber);\r\n                currentBettingResult = isMatch(b.challenges, answerBlockHash);\r\n\r\n                // if win, bettor gets pot\r\n                if(currentBettingResult == BettingResult.Win) {\r\n                    // transfer pot\r\n                    transferAmount = transferAfterPayingFee(b.bettor, _pot + BET_AMOUNT);\r\n\r\n                    // pot = 0\r\n                    _pot = 0;\r\n\r\n                    // emit WIN\r\n                    emit WIN(cur, b.bettor, transferAmount, b.challenges, answerBlockHash[0], b.answerBlockNumber);\r\n                }\r\n\r\n                // if fail, bettor's money goes pot\r\n                if(currentBettingResult == BettingResult.Fail) {\r\n                    // pot = pot + BET_AMOUNT\r\n                    _pot += BET_AMOUNT;\r\n\r\n                    // emit FAIL \r\n                    emit FAIL(cur, b.bettor, 0, b.challenges, answerBlockHash[0], b.answerBlockNumber);\r\n                }\r\n\r\n                // if draw, refund bettor's money \r\n                if(currentBettingResult == BettingResult.Draw) {\r\n                    // transfer only BET_AMOUNT\r\n                    transferAmount = transferAfterPayingFee(b.bettor, BET_AMOUNT);\r\n\r\n                    // emit DRAW\r\n                    emit DRAW(cur, b.bettor, transferAmount, b.challenges, answerBlockHash[0], b.answerBlockNumber);\r\n                }\r\n            }\r\n\r\n            // Not Revealed (  ) \r\n            if(currentBlockStatus == BlockStatus.NotRevealed) {\r\n                break;\r\n            }\r\n\r\n            // Block Limit Passed \r\n            if(currentBlockStatus == BlockStatus.BlockLimitPassed) {\r\n                // refund\r\n                transferAmount = transferAfterPayingFee(b.bettor, BET_AMOUNT);\r\n\r\n                // emit refund\r\n                emit REFUND(cur, b.bettor, transferAmount, b.challenges, b.answerBlockNumber);\r\n            }\r\n\r\n            popBet(cur);\r\n        }\r\n        _head = cur;\r\n    }\r\n\r\n    function transferAfterPayingFee(address payable addr, uint256 amount) public returns (uint256) {\r\n\r\n        // uint256 fee = amount / 100;\r\n        uint256 fee = 0;\r\n        uint256 amountWithoutFee = amount - fee;\r\n\r\n        // transfer to addr\r\n        addr.transfer(amountWithoutFee);\r\n\r\n        // transfer to owner\r\n        owner.transfer(fee);\r\n\r\n        return amountWithoutFee;\r\n    }\r\n\r\n    function setAnswerForTest(bytes32 answer) public returns (bool result) {\r\n        require(msg.sender == owner, \"Only owner can set the answer for test mode\");\r\n        answerForTest = answer;\r\n        return true;\r\n    }\r\n\r\n    function getAnswerBlockHash(uint256 answerBlockNumber) internal view returns (bytes32 answer) {\r\n        return mode ? blockhash(answerBlockNumber) : answerForTest;\r\n    }\r\n\r\n    /**\r\n     * @dev   \r\n     * @param challenges  \r\n     * @param answer \r\n     * @return \r\n     */\r\n    function isMatch(bytes1 challenges, bytes32 answer) public pure returns (BettingResult) {\r\n        // challenges 0xab\r\n        // answer 0xab.....ff 32 byte\r\n\r\n        bytes1 c1 = challenges;\r\n        bytes1 c2 = challenges;\r\n\r\n        bytes1 a1 = answer[0];\r\n        bytes1 a2 = answer[0];\r\n\r\n        // Get first number\r\n        c1 = c1 >> 4;  // 0xab -> 0x0a\r\n        c1 = c1 << 4;  // 0x0a -> 0xa0\r\n\r\n        a1 = a1 >> 4;\r\n        a1 = a1 << 4;\r\n\r\n        // Get second number \r\n        c2 = c2 << 4;  // 0xab -> 0xb0\r\n        c2 = c2 >> 4;  // 0xb0 -> 0x0b\r\n\r\n        a2 = a2 << 4;\r\n        a2 = a2 >> 4;\r\n\r\n\r\n        //     \r\n        if(a1 == c1 && a2 == c2) {\r\n            return BettingResult.Win;\r\n        }\r\n\r\n        //   \r\n        if(a1 == c1 || a2 == c2) {\r\n            return BettingResult.Draw;\r\n        }\r\n\r\n        //   \r\n        return BettingResult.Fail;\r\n    }\r\n    \r\n    // block   \r\n    function getBlockStatus(uint256 answerBlockNumber) internal view returns(BlockStatus) {\r\n        if(block.number > answerBlockNumber && block.number < BLOCK_LIMIT + answerBlockNumber) {\r\n            return BlockStatus.Checkable;\r\n        }\r\n\r\n        if(block.number <= answerBlockNumber) {\r\n            return BlockStatus.NotRevealed;\r\n        }\r\n\r\n        if(block.number >= answerBlockNumber + BLOCK_LIMIT) {\r\n            return BlockStatus.BlockLimitPassed;\r\n        }\r\n\r\n        return BlockStatus.BlockLimitPassed;\r\n    }\r\n\r\n\r\n    // BetInfo   (  (_bets) )\r\n    function getBetInfo(uint256 index) public view returns(uint256 answerBlockNumber, address bettor, bytes1 challenges) {\r\n        BetInfo memory b = _bets[index];\r\n\r\n        answerBlockNumber = b.answerBlockNumber;\r\n        bettor = b.bettor;\r\n        challenges = b.challenges;\r\n    }\r\n\r\n    function pushBet(bytes1 challenges) internal returns(bool) {\r\n        BetInfo memory b;\r\n        b.bettor = payable(msg.sender);  // \r\n        // block.number ->        \r\n        b.answerBlockNumber = block.number + BET_BLOCK_INTERVAL;\r\n        b.challenges = challenges;\r\n\r\n        _bets[_tail] = b;\r\n        _tail++;\r\n        return true;\r\n    }\r\n\r\n    function popBet(uint256 index) internal returns(bool) {\r\n        delete _bets[index];\r\n        return true;\r\n    }\r\n}",
  "sourcePath": "D:\\05.Leejisu\\00.Study\\04.pj\\lotteryDapp\\contracts\\Lottery.sol",
  "compiler": {
    "name": "solc",
    "version": "0.8.17+commit.8df45f5f.Emscripten.clang"
  },
  "schemaVersion": "3.4.11",
  "updatedAt": "2023-02-11T16:49:22.191Z",
  "devdoc": {
    "kind": "dev",
    "methods": {
      "bet(bytes1)": {
        "details": " .  0.005 ETH  ,  1byte  .      distribute  .",
        "params": {
          "challenges": "  "
        },
        "returns": {
          "result": "   "
        }
      },
      "betAndDistribute(bytes1)": {
        "details": "   .  0.005 ETH  ,  1byte  .      distribute  .",
        "params": {
          "challenges": "  "
        },
        "returns": {
          "result": "   "
        }
      },
      "distribute()": {
        "details": "       :     :     or    :   "
      },
      "isMatch(bytes1,bytes32)": {
        "details": "  ",
        "params": {
          "answer": "",
          "challenges": " "
        },
        "returns": {
          "_0": ""
        }
      }
    },
    "version": 1
  },
  "userdoc": {
    "kind": "user",
    "methods": {},
    "version": 1
  }
}