{
  "contractName": "Lottery",
  "abi": [
    {
      "inputs": [],
      "stateMutability": "nonpayable",
      "type": "constructor"
    },
    {
      "anonymous": false,
      "inputs": [
        {
          "indexed": false,
          "internalType": "uint256",
          "name": "index",
          "type": "uint256"
        },
        {
          "indexed": false,
          "internalType": "address",
          "name": "bettor",
          "type": "address"
        },
        {
          "indexed": false,
          "internalType": "uint256",
          "name": "amount",
          "type": "uint256"
        },
        {
          "indexed": false,
          "internalType": "bytes1",
          "name": "challenges",
          "type": "bytes1"
        },
        {
          "indexed": false,
          "internalType": "uint256",
          "name": "answerBlockNumber",
          "type": "uint256"
        }
      ],
      "name": "BET",
      "type": "event"
    },
    {
      "inputs": [],
      "name": "owner",
      "outputs": [
        {
          "internalType": "address",
          "name": "",
          "type": "address"
        }
      ],
      "stateMutability": "view",
      "type": "function",
      "constant": true
    },
    {
      "inputs": [],
      "name": "getPot",
      "outputs": [
        {
          "internalType": "uint256",
          "name": "pot",
          "type": "uint256"
        }
      ],
      "stateMutability": "view",
      "type": "function",
      "constant": true
    },
    {
      "inputs": [
        {
          "internalType": "bytes1",
          "name": "challenges",
          "type": "bytes1"
        }
      ],
      "name": "bet",
      "outputs": [
        {
          "internalType": "bool",
          "name": "result",
          "type": "bool"
        }
      ],
      "stateMutability": "payable",
      "type": "function",
      "payable": true
    },
    {
      "inputs": [
        {
          "internalType": "uint256",
          "name": "index",
          "type": "uint256"
        }
      ],
      "name": "getBetInfo",
      "outputs": [
        {
          "internalType": "uint256",
          "name": "answerBlockNumber",
          "type": "uint256"
        },
        {
          "internalType": "address",
          "name": "bettor",
          "type": "address"
        },
        {
          "internalType": "bytes1",
          "name": "challenges",
          "type": "bytes1"
        }
      ],
      "stateMutability": "view",
      "type": "function",
      "constant": true
    }
  ],
  "bytecode": "0x608060405234801561001057600080fd5b5033600360006101000a81548173ffffffffffffffffffffffffffffffffffffffff021916908373ffffffffffffffffffffffffffffffffffffffff160217905550610918806100616000396000f3fe60806040526004361061003f5760003560e01c8063403c9fa81461004457806379141f801461006f5780638da5cb5b146100ae578063f4b46f5b146100d9575b600080fd5b34801561005057600080fd5b50610059610109565b60405161006691906104f1565b60405180910390f35b34801561007b57600080fd5b506100966004803603810190610091919061053d565b610113565b6040516100a5939291906105e6565b60405180910390f35b3480156100ba57600080fd5b506100c3610211565b6040516100d0919061061d565b60405180910390f35b6100f360048036038101906100ee9190610664565b610237565b60405161010091906106ac565b60405180910390f35b6000600454905090565b60008060008060026000868152602001908152602001600020604051806060016040529081600082015481526020016001820160009054906101000a900473ffffffffffffffffffffffffffffffffffffffff1673ffffffffffffffffffffffffffffffffffffffff1673ffffffffffffffffffffffffffffffffffffffff1681526020016001820160149054906101000a900460f81b7effffffffffffffffffffffffffffffffffffffffffffffffffffffffffffff19167effffffffffffffffffffffffffffffffffffffffffffffffffffffffffffff1916815250509050806000015193508060200151925080604001519150509193909250565b600360009054906101000a900473ffffffffffffffffffffffffffffffffffffffff1681565b60006611c37937e080003414610282576040517f08c379a000000000000000000000000000000000000000000000000000000000815260040161027990610724565b60405180910390fd5b61028b8261032c565b6102ca576040517f08c379a00000000000000000000000000000000000000000000000000000000081526004016102c190610790565b60405180910390fd5b7f100791de9f40bf2d56ffa6dc5597d2fd0b2703ea70bc7548cd74c04f5d215ab760016000546102fa91906107df565b33348560034361030a9190610813565b60405161031b959493929190610847565b60405180910390a160019050919050565b600061033661047f565b33816020019073ffffffffffffffffffffffffffffffffffffffff16908173ffffffffffffffffffffffffffffffffffffffff168152505060034361037b9190610813565b8160000181815250508281604001907effffffffffffffffffffffffffffffffffffffffffffffffffffffffffffff191690817effffffffffffffffffffffffffffffffffffffffffffffffffffffffffffff1916815250508060026000805481526020019081526020016000206000820151816000015560208201518160010160006101000a81548173ffffffffffffffffffffffffffffffffffffffff021916908373ffffffffffffffffffffffffffffffffffffffff16021790555060408201518160010160146101000a81548160ff021916908360f81c02179055509050506000808154809291906104709061089a565b91905055506001915050919050565b604051806060016040528060008152602001600073ffffffffffffffffffffffffffffffffffffffff16815260200160007effffffffffffffffffffffffffffffffffffffffffffffffffffffffffffff191681525090565b6000819050919050565b6104eb816104d8565b82525050565b600060208201905061050660008301846104e2565b92915050565b600080fd5b61051a816104d8565b811461052557600080fd5b50565b60008135905061053781610511565b92915050565b6000602082840312156105535761055261050c565b5b600061056184828501610528565b91505092915050565b600073ffffffffffffffffffffffffffffffffffffffff82169050919050565b60006105958261056a565b9050919050565b6105a58161058a565b82525050565b60007fff0000000000000000000000000000000000000000000000000000000000000082169050919050565b6105e0816105ab565b82525050565b60006060820190506105fb60008301866104e2565b610608602083018561059c565b61061560408301846105d7565b949350505050565b6000602082019050610632600083018461059c565b92915050565b610641816105ab565b811461064c57600080fd5b50565b60008135905061065e81610638565b92915050565b60006020828403121561067a5761067961050c565b5b60006106888482850161064f565b91505092915050565b60008115159050919050565b6106a681610691565b82525050565b60006020820190506106c1600083018461069d565b92915050565b600082825260208201905092915050565b7f4e6f7420656e6f75676820455448000000000000000000000000000000000000600082015250565b600061070e600e836106c7565b9150610719826106d8565b602082019050919050565b6000602082019050818103600083015261073d81610701565b9050919050565b7f4661696c20746f206164642061206e65772042657420496e666f000000000000600082015250565b600061077a601a836106c7565b915061078582610744565b602082019050919050565b600060208201905081810360008301526107a98161076d565b9050919050565b7f4e487b7100000000000000000000000000000000000000000000000000000000600052601160045260246000fd5b60006107ea826104d8565b91506107f5836104d8565b925082820390508181111561080d5761080c6107b0565b5b92915050565b600061081e826104d8565b9150610829836104d8565b9250828201905080821115610841576108406107b0565b5b92915050565b600060a08201905061085c60008301886104e2565b610869602083018761059c565b61087660408301866104e2565b61088360608301856105d7565b61089060808301846104e2565b9695505050505050565b60006108a5826104d8565b91507fffffffffffffffffffffffffffffffffffffffffffffffffffffffffffffffff82036108d7576108d66107b0565b5b60018201905091905056fea2646970667358221220882a28f1c61ef33a175e33dcb5fcede74fec234d616220f1cabf7f40348eabd264736f6c63430008110033",
  "immutableReferences": {},
  "source": "// SPDX-License-Identifier: MIT\r\npragma solidity 0.8.17;\r\n\r\n\r\ncontract Lottery {\r\n    struct BetInfo {\r\n        uint256 answerBlockNumber; \r\n        address payable bettor;\r\n        bytes1 challenges;  // 0xab, byte  \r\n    }\r\n\r\n    uint256 private _tail;\r\n    uint256 private _head;\r\n    mapping (uint256 => BetInfo) private _bets;\r\n\r\n    address public owner;\r\n\r\n    uint256 constant internal BLOCK_LIMIT = 256;\r\n    uint256 constant internal BET_BLOCK_INTERVAL = 3;\r\n    uint256 constant internal BET_AMOUNT = 5 * 10 ** 15;  //   \r\n\r\n    uint256 private _pot;  //   \r\n\r\n    event BET(uint256 index, address bettor, uint256 amount, bytes1 challenges, uint256 answerBlockNumber);\r\n\r\n    constructor() {\r\n        owner = msg.sender;\r\n    }\r\n\r\n    // _pot  \r\n    function getPot() public view returns (uint256 pot) {\r\n        return _pot;\r\n    }\r\n\r\n    // \r\n    /**\r\n     * @dev  .  0.005 ETH  ,  1byte  .\r\n     *      distribute  .\r\n     */\r\n    function bet(bytes1 challenges) public payable returns (bool result) {\r\n        //    \r\n        require(msg.value == BET_AMOUNT, \"Not enough ETH\");\r\n\r\n        //  bet  \r\n        require(pushBet(challenges), \"Fail to add a new Bet Info\");\r\n\r\n        // emit event\r\n        emit BET(_tail - 1, msg.sender, msg.value, challenges, block.number + BET_BLOCK_INTERVAL);\r\n\r\n        return true;\r\n    }\r\n        //   (Save the bet to the queue)\r\n    //  (Distribute)\r\n        //    (Check the answer)\r\n\r\n\r\n    // BetInfo   (  (_bets) )\r\n    function getBetInfo(uint256 index) public view returns(uint256 answerBlockNumber, address bettor, bytes1 challenges) {\r\n        BetInfo memory b = _bets[index];\r\n\r\n        answerBlockNumber = b.answerBlockNumber;\r\n        bettor = b.bettor;\r\n        challenges = b.challenges;\r\n    }\r\n\r\n    function pushBet(bytes1 challenges) internal returns(bool) {\r\n        BetInfo memory b;\r\n        b.bettor = payable(msg.sender);  // \r\n        // block.number ->        \r\n        b.answerBlockNumber = block.number + BET_BLOCK_INTERVAL;\r\n        b.challenges = challenges;\r\n\r\n        _bets[_tail] = b;\r\n        _tail++;\r\n        return true;\r\n    }\r\n\r\n    function popBet(uint256 index) internal returns(bool) {\r\n        delete _bets[index];\r\n        return true;\r\n    }\r\n}",
  "sourcePath": "D:\\05.Leejisu\\00.Study\\04.pj\\lotteryDapp\\contracts\\Lottery.sol",
  "compiler": {
    "name": "solc",
    "version": "0.8.17+commit.8df45f5f.Emscripten.clang"
  },
  "schemaVersion": "3.4.11",
  "updatedAt": "2023-02-11T11:38:36.926Z",
  "networkType": "ethereum",
  "devdoc": {
    "kind": "dev",
    "methods": {
      "bet(bytes1)": {
        "details": " .  0.005 ETH  ,  1byte  .      distribute  ."
      }
    },
    "version": 1
  },
  "userdoc": {
    "kind": "user",
    "methods": {},
    "version": 1
  }
}