{
  "contractName": "Lottery",
  "abi": [
    {
      "inputs": [],
      "stateMutability": "nonpayable",
      "type": "constructor"
    },
    {
      "anonymous": false,
      "inputs": [
        {
          "indexed": false,
          "internalType": "uint256",
          "name": "index",
          "type": "uint256"
        },
        {
          "indexed": false,
          "internalType": "address",
          "name": "bettor",
          "type": "address"
        },
        {
          "indexed": false,
          "internalType": "uint256",
          "name": "amount",
          "type": "uint256"
        },
        {
          "indexed": false,
          "internalType": "bytes1",
          "name": "challenges",
          "type": "bytes1"
        },
        {
          "indexed": false,
          "internalType": "uint256",
          "name": "answerBlockNumber",
          "type": "uint256"
        }
      ],
      "name": "BET",
      "type": "event"
    },
    {
      "inputs": [],
      "name": "owner",
      "outputs": [
        {
          "internalType": "address",
          "name": "",
          "type": "address"
        }
      ],
      "stateMutability": "view",
      "type": "function"
    },
    {
      "inputs": [],
      "name": "getPot",
      "outputs": [
        {
          "internalType": "uint256",
          "name": "pot",
          "type": "uint256"
        }
      ],
      "stateMutability": "view",
      "type": "function"
    },
    {
      "inputs": [
        {
          "internalType": "bytes1",
          "name": "challenges",
          "type": "bytes1"
        }
      ],
      "name": "bet",
      "outputs": [
        {
          "internalType": "bool",
          "name": "result",
          "type": "bool"
        }
      ],
      "stateMutability": "payable",
      "type": "function"
    },
    {
      "inputs": [
        {
          "internalType": "uint256",
          "name": "index",
          "type": "uint256"
        }
      ],
      "name": "getBetInfo",
      "outputs": [
        {
          "internalType": "uint256",
          "name": "answerBlockNumber",
          "type": "uint256"
        },
        {
          "internalType": "address",
          "name": "bettor",
          "type": "address"
        },
        {
          "internalType": "bytes1",
          "name": "challenges",
          "type": "bytes1"
        }
      ],
      "stateMutability": "view",
      "type": "function"
    },
    {
      "inputs": [
        {
          "internalType": "bytes1",
          "name": "challenges",
          "type": "bytes1"
        }
      ],
      "name": "pushBet",
      "outputs": [
        {
          "internalType": "bool",
          "name": "",
          "type": "bool"
        }
      ],
      "stateMutability": "nonpayable",
      "type": "function"
    },
    {
      "inputs": [
        {
          "internalType": "uint256",
          "name": "index",
          "type": "uint256"
        }
      ],
      "name": "popBet",
      "outputs": [
        {
          "internalType": "bool",
          "name": "",
          "type": "bool"
        }
      ],
      "stateMutability": "nonpayable",
      "type": "function"
    }
  ],
  "bytecode": "0x608060405234801561001057600080fd5b5033600360006101000a81548173ffffffffffffffffffffffffffffffffffffffff021916908373ffffffffffffffffffffffffffffffffffffffff160217905550610a0c806100616000396000f3fe6080604052600436106100555760003560e01c8063032820961461005a578063403c9fa81461009757806379141f80146100c25780638da5cb5b14610101578063d04c9a8c1461012c578063f4b46f5b14610169575b600080fd5b34801561006657600080fd5b50610081600480360381019061007c9190610629565b610199565b60405161008e9190610671565b60405180910390f35b3480156100a357600080fd5b506100ac6102ec565b6040516100b991906106a5565b60405180910390f35b3480156100ce57600080fd5b506100e960048036038101906100e491906106ec565b6102f6565b6040516100f893929190610769565b60405180910390f35b34801561010d57600080fd5b506101166103f4565b60405161012391906107a0565b60405180910390f35b34801561013857600080fd5b50610153600480360381019061014e91906106ec565b61041a565b6040516101609190610671565b60405180910390f35b610183600480360381019061017e9190610629565b61047e565b6040516101909190610671565b60405180910390f35b60006101a3610573565b33816020019073ffffffffffffffffffffffffffffffffffffffff16908173ffffffffffffffffffffffffffffffffffffffff16815250506003436101e891906107ea565b8160000181815250508281604001907effffffffffffffffffffffffffffffffffffffffffffffffffffffffffffff191690817effffffffffffffffffffffffffffffffffffffffffffffffffffffffffffff1916815250508060026000805481526020019081526020016000206000820151816000015560208201518160010160006101000a81548173ffffffffffffffffffffffffffffffffffffffff021916908373ffffffffffffffffffffffffffffffffffffffff16021790555060408201518160010160146101000a81548160ff021916908360f81c02179055509050506000808154809291906102dd9061081e565b91905055506001915050919050565b6000600454905090565b60008060008060026000868152602001908152602001600020604051806060016040529081600082015481526020016001820160009054906101000a900473ffffffffffffffffffffffffffffffffffffffff1673ffffffffffffffffffffffffffffffffffffffff1673ffffffffffffffffffffffffffffffffffffffff1681526020016001820160149054906101000a900460f81b7effffffffffffffffffffffffffffffffffffffffffffffffffffffffffffff19167effffffffffffffffffffffffffffffffffffffffffffffffffffffffffffff1916815250509050806000015193508060200151925080604001519150509193909250565b600360009054906101000a900473ffffffffffffffffffffffffffffffffffffffff1681565b6000600260008381526020019081526020016000206000808201600090556001820160006101000a81549073ffffffffffffffffffffffffffffffffffffffff02191690556001820160146101000a81549060ff0219169055505060019050919050565b60006611c37937e0800034146104c9576040517f08c379a00000000000000000000000000000000000000000000000000000000081526004016104c0906108c3565b60405180910390fd5b6104d282610199565b610511576040517f08c379a00000000000000000000000000000000000000000000000000000000081526004016105089061092f565b60405180910390fd5b7f100791de9f40bf2d56ffa6dc5597d2fd0b2703ea70bc7548cd74c04f5d215ab76001600054610541919061094f565b33348560034361055191906107ea565b604051610562959493929190610983565b60405180910390a160019050919050565b604051806060016040528060008152602001600073ffffffffffffffffffffffffffffffffffffffff16815260200160007effffffffffffffffffffffffffffffffffffffffffffffffffffffffffffff191681525090565b600080fd5b60007fff0000000000000000000000000000000000000000000000000000000000000082169050919050565b610606816105d1565b811461061157600080fd5b50565b600081359050610623816105fd565b92915050565b60006020828403121561063f5761063e6105cc565b5b600061064d84828501610614565b91505092915050565b60008115159050919050565b61066b81610656565b82525050565b60006020820190506106866000830184610662565b92915050565b6000819050919050565b61069f8161068c565b82525050565b60006020820190506106ba6000830184610696565b92915050565b6106c98161068c565b81146106d457600080fd5b50565b6000813590506106e6816106c0565b92915050565b600060208284031215610702576107016105cc565b5b6000610710848285016106d7565b91505092915050565b600073ffffffffffffffffffffffffffffffffffffffff82169050919050565b600061074482610719565b9050919050565b61075481610739565b82525050565b610763816105d1565b82525050565b600060608201905061077e6000830186610696565b61078b602083018561074b565b610798604083018461075a565b949350505050565b60006020820190506107b5600083018461074b565b92915050565b7f4e487b7100000000000000000000000000000000000000000000000000000000600052601160045260246000fd5b60006107f58261068c565b91506108008361068c565b9250828201905080821115610818576108176107bb565b5b92915050565b60006108298261068c565b91507fffffffffffffffffffffffffffffffffffffffffffffffffffffffffffffffff820361085b5761085a6107bb565b5b600182019050919050565b600082825260208201905092915050565b7f4e6f7420656e6f75676820455448000000000000000000000000000000000000600082015250565b60006108ad600e83610866565b91506108b882610877565b602082019050919050565b600060208201905081810360008301526108dc816108a0565b9050919050565b7f4661696c20746f206164642061206e65772042657420496e666f000000000000600082015250565b6000610919601a83610866565b9150610924826108e3565b602082019050919050565b600060208201905081810360008301526109488161090c565b9050919050565b600061095a8261068c565b91506109658361068c565b925082820390508181111561097d5761097c6107bb565b5b92915050565b600060a0820190506109986000830188610696565b6109a5602083018761074b565b6109b26040830186610696565b6109bf606083018561075a565b6109cc6080830184610696565b969550505050505056fea2646970667358221220e5fdb85801912f69da33edabe233fa7f3a5ec87f6bf1c635f981e7bdabb9696f64736f6c63430008110033",
  "immutableReferences": {},
  "source": "// SPDX-License-Identifier: MIT\r\npragma solidity 0.8.17;\r\n\r\n\r\ncontract Lottery {\r\n    struct BetInfo {\r\n        uint256 answerBlockNumber; \r\n        address payable bettor;\r\n        bytes1 challenges;  // 0xab, byte  \r\n    }\r\n\r\n    uint256 private _tail;\r\n    uint256 private _head;\r\n    mapping (uint256 => BetInfo) private _bets;\r\n\r\n    address public owner;\r\n\r\n    uint256 constant internal BLOCK_LIMIT = 256;\r\n    uint256 constant internal BET_BLOCK_INTERVAL = 3;\r\n    uint256 constant internal BET_AMOUNT = 5 * 10 ** 15;  //   \r\n\r\n    uint256 private _pot;  //   \r\n\r\n    event BET(uint256 index, address bettor, uint256 amount, bytes1 challenges, uint256 answerBlockNumber);\r\n\r\n    constructor() {\r\n        owner = msg.sender;\r\n    }\r\n\r\n    // _pot  \r\n    function getPot() public view returns (uint256 pot) {\r\n        return _pot;\r\n    }\r\n\r\n    // \r\n    /**\r\n     * @dev  .  0.005 ETH  ,  1byte  .\r\n     *      distribute  .\r\n     */\r\n    function bet(bytes1 challenges) public payable returns (bool result) {\r\n        //    \r\n        require(msg.value == BET_AMOUNT, \"Not enough ETH\");\r\n\r\n        //  bet  \r\n        require(pushBet(challenges), \"Fail to add a new Bet Info\");\r\n\r\n        // emit event\r\n        emit BET(_tail - 1, msg.sender, msg.value, challenges, block.number + BET_BLOCK_INTERVAL);\r\n\r\n        return true;\r\n    }\r\n        //   (Save the bet to the queue)\r\n    //  (Distribute)\r\n        //    (Check the answer)\r\n\r\n\r\n    // BetInfo   (  (_bets) )\r\n    function getBetInfo(uint256 index) public view returns(uint256 answerBlockNumber, address bettor, bytes1 challenges) {\r\n        BetInfo memory b = _bets[index];\r\n\r\n        answerBlockNumber = b.answerBlockNumber;\r\n        bettor = b.bettor;\r\n        challenges = b.challenges;\r\n    }\r\n\r\n    function pushBet(bytes1 challenges) public returns(bool) {\r\n        BetInfo memory b;\r\n        b.bettor = payable(msg.sender);  // \r\n        // block.number ->        \r\n        b.answerBlockNumber = block.number + BET_BLOCK_INTERVAL;\r\n        b.challenges = challenges;\r\n\r\n        _bets[_tail] = b;\r\n        _tail++;\r\n        return true;\r\n    }\r\n\r\n    function popBet(uint256 index) public returns(bool) {\r\n        delete _bets[index];\r\n        return true;\r\n    }\r\n}",
  "sourcePath": "D:\\05.Leejisu\\00.Study\\04.pj\\lotteryDapp\\contracts\\Lottery.sol",
  "compiler": {
    "name": "solc",
    "version": "0.8.17+commit.8df45f5f.Emscripten.clang"
  },
  "schemaVersion": "3.4.11",
  "updatedAt": "2023-02-10T12:11:37.325Z",
  "devdoc": {
    "kind": "dev",
    "methods": {
      "bet(bytes1)": {
        "details": " .  0.005 ETH  ,  1byte  .      distribute  ."
      }
    },
    "version": 1
  },
  "userdoc": {
    "kind": "user",
    "methods": {},
    "version": 1
  }
}